:100000000C94630C0C948B0C0C948B0C0C948B0C3C
:100010000C948B0C0C948B0C0C948B0C0C948B0C04
:100020000C948B0C0C948B0C0C948B0C0C94F71B79
:100030000C948B0C0C948B0C0C948B0C0C948B0CE4
:100040000C942A1A0C948B0C0C949A1A0C94741A13
:100050000C948B0C0C948B0C0C948B0C0C948B0CC4
:100060000C94CC1A0C948B0C802EFC00802EFE007D
:10007000C82E002E802EFA00802E23B1802EFD0087
:10008000802EFB00802E5AB15039212EB0F0103056
:10009000212E16F0802EFC015D50455201423B801E
:1000A000413001423C80002E01400142212EFFAF31
:1000B000B82E9BE1802E1800802E1800802E18008C
:1000C000802E1800802E1800802E1800802E180018
:1000D000802E1800802E1800802E1800802E180008
:1000E000802E1800802E1800802E1800802E1800F8
:1000F000802E1800802E1800802E1800802E1800E8
:10010000802E1800FD2D00000000000000000000FF
:1001100000000000000000000000000000000000DF
:1001200000000000000000000000020100000000CC
:100130000100000000000000000800F800000000BE
:100140000000000000004900240100000000000041
:10015000000000000000000000000000000000009F
:10016000000000000000000000000000000000008F
:10017000000000000000000000000000000000007F
:10018000000000000000982E99012026982EF6000D
:10019000982EE9011030212E59F0982ED800002E0B
:1001A000002ED02E982EDD00012E560000B2112F09
:1001B0000030212E56004150982ECCB04150982E40
:1001C0008FB4012E03F00DBC0FB80090022F4550E4
:1001D000212EBCF0012E550000B21A2F0030212E26
:1001E00055004350982ECCB04350982EDCB143506C
:1001F000982E92B54350982E00B0012E1C010FBCD2
:100200000FB800904550022F212EBCF0022D212E58
:10021000BAF0982ED800C32D012E55F0C02E212EF5
:1002200055F0032E00F04554012E59F04A0E022FCE
:10023000F1330D2C0108F2304A08798482A2042F90
:100240000234820A47A2032C10224552010AC02E12
:10025000212E59F00031C02E212EBAF0C82EC82E02
:10026000C82EC82EC82E4447AA0005002D01D47BF5
:100270003B01DB7A04003F7BCD6CC3048509C304DA
:10028000ECE60C460100270019009600A0000100D2
:100290000C00F03C00010100030001000E00000012
:1002A000060000004320880052004F0080005B00E1
:1002B0000040AF00FF00FFB7000200B00580B1F0C2
:1002C000C00000015EF039F089F00020FF7F7D0062
:1002D0005E0062007C00FFFB52F056F033093307EA
:1002E0000008900100F867004C04A000E8038100BA
:1002F00082006A006D006C00EB07AE0772006F00B1
:10030000A1011E0547FD7300770079007600CC003F
:1003100030505040001850405625472500182E00F8
:100320004140A7020918C600FB7F00304952053042
:10033000052C17031EBDD2BA92B86A0B610EF92FB5
:10034000611A012F5D0EF52FD47F02301F2CE37F41
:100350008501D1037C0E032F7C1A0F2F730F0D2FF5
:10036000E36FDE045FBA11BFB40BD46F2707B32568
:10037000D1BFEB7F0700B4259602DB7F2FBF9EBF66
:1003800001B8D2BA21B992B8060A6F0B4090DF2F9C
:100390004091DD2FFB6FD05FB82E575041300240A7
:1003A000510A014218824B506042703C4D54424207
:1003B0006982823243401808020A40424280023F6A
:1003C000014010504A08FB7F11420B310B423E8026
:1003D00001320142002E012E40F01690202F0330F2
:1003E00051504F54F4340630555255321D1AE32201
:1003F000181A5358E3220430D540B50DE1BE6FBB47
:100400008091A90D0189B52310A1F72FDA0EF434DC
:10041000EB2F012E2500701A00302130022C08220B
:10042000303000B2062F212E59F0982ED800002E21
:10043000002ED02EFB6FF05FB82E012EB1F0595276
:10044000010A212EB1F0012E1C010FBC0FB8009043
:100450004550022FC02E212EBCF0C02E212EBAF006
:100460001A242600802E8F00032E0101052E010183
:1004700092BD2050032E0101BFBA21BD2FBB1FBA70
:100480004091F07F042F8091022F00B3902EC7B0CF
:10049000032E7B0001804090142F4184F16F252EA4
:1004A0007B004140232E5A004752124052420230F4
:1004B00000404042E05F252E5700252E5800252E93
:1004C0005D00B82E072E0001032E0101052E00014C
:1004D00024BD0F2E5900B5BD93BC2FB9B5B993B843
:1004E0003A1A062F0730252E59002F2E57002F2E8F
:1004F000580040B3053007300A2FF76FE67F002E13
:10050000C6410F2E5A00B70580A9EE05F723E66F06
:1005100080B30630092FE77F002E06400F2E5B00C8
:10052000B70580A9EE05B723E76F00B304300B2FA2
:10053000F46F0289E77F002E04410F2E5C0027052F
:1005400000A9EC052723E76F7B0F17300B2F730FE4
:1005500005301730072F630F15301730002F073085
:10056000E30E002F05308090052E5700133013291D
:10057000F26F475C172FC09105300B2F072E5800E4
:10058000C1862B2E5700590E272E5800242F2B2EB4
:100590005D00222D610E292E57002B2E58001B2F97
:1005A000272E5D00192D4091052F0130232E570075
:1005B000232E5D00062D292E5700610E012F272EB8
:1005C0005D008140232E5A0030254752D4405442CA
:1005D000002EC3404342002E032E5D0040B20D2F7B
:1005E0008140232E5A001140914301340040804342
:1005F000232E5EF0032D0030212E7B00E05FB82E0D
:100600005050F07F1A2513407B84E07F83423530C1
:1006100011400440C17FD47F8631072E59F0032E4C
:100620001F010D0902AB05308E092C23E3BA42AB42
:1006300016307523595C8E0966BB82AB2730BE230A
:100640003E80251A062F2E1A042F261A022FF73D58
:10065000032CDF080732DF0A14015501044114425C
:100660001601424145304D0904411242044240B353
:10067000042FF06F02300440940402420032080854
:1006800000B20030052FE26F002E84400405844242
:10069000002E5B544A0840B2F16F042F4282002EB4
:1006A000424002044042B05F272E59F0B82E50500D
:1006B000F77F002E0F2EB8F0F8BFFFBBC0B32A2F74
:1006C0000F2E01F0FEBFE67F7EBBD57F37305F5A2D
:1006D000BE056741C47F78BE4741270BB37FE61153
:1006E00041564389D742002E27410541F8BF7D0B73
:1006F0006E11038FD5421430E541C741D8BE6F0B50
:100700006E11C542292E56004556272EB8F0E66FC9
:10071000D56FC46FB36FF76FB05FC82E5050E57FD1
:10072000D77FF67F36300B2E01F0DEBEDEBB615A7E
:10073000B7056741C47F78BE4741270BB37FE611F9
:1007400043564389D742002E27410541F8BF7D0B10
:100750006E11038FD5421430E541C741D8BE6F0BEF
:100760006E11C542292E55000331272EB8F0F66FC1
:10077000E56FD76FC46FB36FB05FC82E4050F67F80
:100780001A18635633000630FE030EB8F2BF070A8C
:100790002A18635AB5010330FB036EBBF2BFE17F39
:1007A000F70B5640362546400628C77F2218D17FD2
:1007B000B500013039032EB942BE140BF26F101888
:1007C000B500B9032EB962BF960AB66F301875012D
:1007D000B9035C28E2BFDEB9D66FDF0A8A28C46F8E
:1007E00082432329E56FC02E4443C05F4050D07F31
:1007F0004A1700400118462507256556D9045318A5
:10080000EB18053049166906CA18A600C7026558D4
:10081000CB7F982E7FB6CB6FD26FC02E8042C05F49
:10082000092E1B01052E1B01A3BC44BE90504FB9DD
:10083000072E1B014A259FB8398FB2BDF27FBFB981
:10084000EB7F8A0A37890B30930A8B7FCB430B43AC
:1008500080B2D37FC17F902E87B22025012E640005
:1008600001900E2F6752012E6100B47FA27F982E57
:100870008DB20030212E6400C16FD36FA26FB46FB0
:100880000B30012E1B0106BC06BB5725012E1B0198
:1008900094B105BCB67F0FBB6B5080B30F2F0D2EEC
:1008A0001B016F5EB7092D2E1B01715C695E9B43B6
:1008B0009B43DB439B431B42CB430B428B4340B2E6
:1008C000052F6950002E16400B40767F8B7FCB0A98
:1008D000012E610067526D5C982ED3B2906F00B20A
:1008E0000B2FF06F00B2082F69586B501241124263
:1008F000213004410442232E5EF0C06F00B2262F47
:10090000746F806F715488BDC8B84B0A944291428D
:10091000904288BA6952F36F54428542C090404277
:10092000152F6B52002E52404140A204410640AAAE
:10093000042F40900B2FB16F4A0F082FB26F80B277
:10094000052F6B54213094428042232E5EF0D06FED
:1009500000B2132F012E6000092E7C00041A0D2F07
:100960007350292E60002442443002400242098024
:10097000002E0442032D1030212E6400EB6F705FB7
:10098000B82E09864954E440C3809404C34013053B
:10099000054025058A17733073098C17F308E300A7
:1009A0004C829500B3B523B5534252425342424262
:1009B000718275545242105077545242FB7F22305C
:1009C0007956434244820B3052425B427C844B4214
:1009D00035828C808B420B42398004300B42378049
:1009E00015306025982EC6B28B83FB6F6542C02EF2
:1009F0004442F05F05800230518202421330414090
:100A00004B087B543E805114C02E0142002E4051B1
:100A1000D17F12250230424332308243C67FE57FC8
:100A2000B47FA37F907F8B7F982E5401C07E00AC53
:100A3000012F6550C07E002E906F098AD16F757F9F
:100A40004C826341657F117F002E64414485527F53
:100A5000457F002EA6408040327F828EC26E454187
:100A6000F07F277F027F982E8AB1236FD16FC2401B
:100A7000F986237F80B2E07E0F2F326F646F824051
:100A8000F27F4E82426F506F736F8540C3400441C6
:100A90000640E26E982E8AB1E07EF331106F368008
:100AA000E16E0240717F5104023040A891044A2255
:100AB000891693084A0095B409188E1613309308C6
:100AC000216F607F4D860280B200414021B5507F8A
:100AD000437F982EC2B1406F626F556F13408440C0
:100AE0000140454142BE1D184C04310F048AC06FBD
:100AF0001130022F002E032C014223300342002E1E
:100B0000D66F44418A87768B00B3537F152F046FCD
:100B10007D5E8B8DE701C0A58441012F00A1032FCD
:100B2000C0AD082F00A5062FC640818D07303C05BB
:100B3000D642042CC442022C073007308686946FBC
:100B4000D77E0E8D00407489C74002B2F929454115
:100B50008641BE80214175238240C742457F347F54
:100B6000207F982EC2B1316F606F246F2240054103
:100B7000434013014386AC0FD16F307F002F4442B6
:100B8000488A4188E140137F047FF57E982EC2B1E8
:100B9000116F606F346F424003409A0404414382F6
:100BA000A20E036F002FC242002E4140726F982E9A
:100BB000C2B1256F726F5341930ED16F46801B30C7
:100BC00003300C2F044000914242082FF66E446F10
:100BD0008641B40E032F0288DB7E03430B42468D11
:100BE00044414780056F940F767F607F022F4589CF
:100BF000424303434988A56F4091A47F1530E26FBB
:100C0000D36E032F04308342802E77B4044025290D
:100C1000044283424582946F0485C0B2902E63B42F
:100C200015873C8CC440467FC28607408641F4BF8E
:100C300000B30C2F906F16804625004057250418EE
:100C4000AE0E1030063075254623606F6425C44013
:100C5000FA8600B3337F092F936FD888536F04410E
:100C6000C340DC0E13300430DC22B32540B3022F26
:100C70003B25C090052F916FD06F982EC6B24D2C9A
:100C800004308D8843408240547FDA0F0430082FAF
:100C9000C1804042C20F022F0030C07E1B2DC07E9B
:100CA000192DE1BC926F4F04908440A82105834028
:100CB0004C224B0EB6842130022F1130042CC17E01
:100CC000E36FC17EC142002E0040814004BD406FF1
:100CD000982EC2B1506F113002405108C36E03808C
:100CE00099150B40B16FD06FB67F5B7F04304D54C8
:100CF0000330112C1080556F0640750158BB6A09EE
:100D00000542C18647405125BE015643002E46414B
:100D1000F403B66F47435E0EED2F316F606F4240B4
:100D200015300282950804425242022C444204309B
:100D30003E8E916F4F8C02408341B58D930ED06FE4
:100D4000012F982EC6B2002EC0418141C10FC06F45
:100D5000012F0442002E706F3C82004041408916F2
:100D600095084A0004BC91B4010EE06F072FA16FF3
:100D7000002E414040B2022FA16F05424442002E96
:100D80008B6FC05EB82E032E1C019CBC1DB9028265
:100D9000252E8E0083561318012E66004340D8047A
:100DA000052E65004050272E6500FB7FDA058B502D
:100DB0004B4002408182014203808152B1000340D6
:100DC0003B8285581401C0B2372E6600D17FE27F86
:100DD000042F052E6B008184252E6B0062403A0F94
:100DE0004540C17F21301230422F0D2E69003E0E4A
:100DF000332F052E6A000135910E0130032F092E85
:100E00006E0000B3242FC035900E392F8F50023062
:100E100001407F8243A2022F002E0C2C0130C0B271
:100E20001130022F252E6D00032D232E6D00213051
:100E3000252E6B0042B2042F41B2022F252E6D00E9
:100E400031303E800486252E6C000242C242182DAD
:100E500002350142252E6A00132D2C04381E212E46
:100E600069007F5011302230982E66B5092C013070
:100E70002C00381C212E68007F50982E66B501305A
:100E8000C06FD4B1F5BD6BBA915A02401518F5BECA
:100E9000EBBBE30A3D0BD26FE3008440630593583C
:100EA0002C18F5BE0342EBBBFD0BE06F5801DF01D0
:100EB0007D1F9542180485405D052C1875BEEBBA60
:100EC0002C0BDC04181C804284800230004000B2ED
:100ED0000C2F012E6B000335830E072F8D503E80A3
:100EE000252E6D0002420380002E024240B2042FE4
:100EF0008B500480252E6A00024242B289569A2203
:100F000041B2012E1C0187520BBC8A220FB80090FF
:100F10000132062F1030900880B2082F232E5EF089
:100F2000062D2030900880B2012F232E5EF0FB6F3B
:100F3000C05FB82E0786FC88C6400541311A122FC3
:100F40008091222F0135290F0A2F0680002E0040A4
:100F500000B2012F44A9032F0030C0420043B82E35
:100F6000C2420143B82E0135A90E0E2F033BEB0000
:100F7000CCA80A2F0586C280C34002423C84C180AF
:100F800081428284C02E8042002EB82E032E1D0185
:100F90009FBC9FB8905040B2902E71B61240033063
:100FA000114080A85A059F5855230040757F40A8DE
:100FB0001641D905CF23560540A99D05877F6E238D
:100FC0001741A57F3E8B0441524300A89805F27F4C
:100FD0008622CF05C0A99F05BE230405927F00A9E4
:100FE000DC055143B67F2723A754E17F02187D8398
:100FF0004043EBBA75BDAA0A0B2E7100775C2E1820
:10100000F5BE6BBB750BAA00C47F252E7100B26FB5
:10101000A56FAA005401846F726F940580A9DE0544
:10102000B723995E770E4140975CB101D57F002EC2
:1010300085410E2F00A00C2F140F042FE06F00AC81
:101040001030082C1822F06F00AC30302430022C05
:10105000202240300D2E710080A11E23795E370FB3
:10106000BC23009014301030182F9D5030009B5638
:10107000430E022F10300A2C03309950100E1330FB
:10108000002F0330900F1030002F003000901030F0
:10109000002F0030C0901330002F033040B2875C27
:1010A000222F41904A2FA550002E0140418201423B
:1010B00002804AA80140062FD06F850E3E2F418046
:1010C000212E78003B2D9550FB7F4AA8062F982EA5
:1010D00073B6C090FB6F322F002E302D982E73B652
:1010E000292E7A002B2CFB6FA152D26F950E414016
:1010F000052F0090172F052E7A008090132F7F82E6
:1011000040AC232E77000130182FA1548284232E67
:101110007700824080B2112F0090232E79000D2F8E
:10112000292E72000B2D4180212E77000FA4052F50
:10113000A3503E80F130292E790001420630340858
:1011400000B2022F8030212E5EF0705FB82E048432
:101150000130814282840142A14281428284002E78
:1011600091428142B82E3050F37FC0ACE47FD57FEE
:10117000032F00308204F36FC30640AD052FE06FEC
:1011800005302804D16F6907E07F40A10130202F8E
:10119000132502250432063002300330AFBBB1BD47
:1011A000DF0A9FBB21BD970A8FBB91BC01BC4F0AD0
:1011B0006B0E042F6B1A072FE76F7A0F042FE76F60
:1011C00097041730070ADD06818D340EE62F002EB6
:1011D0000D2D6B0E0030052F6B1A072FE06F420F9D
:1011E0000030032FE06F9004DD061030F56FC37FF1
:1011F000B27F40AD062F0330B26F9A04C46FDC0695
:10120000B27FC37F002ED26FAA0C80AC0230012FB8
:1012100010045106D05FB82E802E1800802E1800C2
:10122000802E1800802E1800802E1800802E1800A6
:10123000802E1800802E1800802E1800802E180096
:10124000802E1800802E1800802E1800802E180086
:10125000802E1800802E1800802E1800802E180076
:10186000802E1800802E18000000000900030200DE
:101870000004050800000000000000000000000057
:10188000000000250028002B000000000024002795
:10189000002A0004040404040404040202020202F4
:1018A00002030303030303020203010204081020DE
:1018B000408001020408102001020408102040802A
:1018C0004000F51CFE2711241FBECFEFD8E0DEBF7D
:1018D000CDBF13E0A0E0B1E0E8E7F8E502C0059075
:1018E0000D92AE31B107D9F725E0AEE1B3E001C00A
:1018F0001D92A73BB207E1F71CE0C2E6DCE004C0A2
:101900002197FE010E94B928C136D107C9F70E946C
:10191000221E0C942F2C0C94000090E0FC01E65544
:10192000F74E24918D56974EFC018491882399F0AF
:1019300090E0880F991FFC01E757F74EA591B491ED
:10194000FC01E158F74E859194918FB7F894EC9192
:10195000E22BEC938FBF0895982F80916D04811135
:10196000FCCF81E080936D0440936C042FEF2093B3
:101970006B0425E434E030936A04209369041092E8
:1019800068042FEF260F20936704809366048091EC
:101990006604990F982B90936604809165048130BA
:1019A000C9F410926504809166048093BB00809115
:1019B000BC0083FDF8CF85EC8093BC0080916D0462
:1019C0008130E1F380916804861710F46091680417
:1019D000862F089585EEF0CF282F9091440481E062
:1019E000913208F042C080916D048111FCCF80914A
:1019F000430432E030936D0420936C042FEF209366
:101A00006B0423E234E030936A042093690410925B
:101A10006804909367041092660490916604880F9E
:101A2000892B8093660480916504813029F510929A
:101A30006504809166048093BB008091BC0083FDA7
:101A4000F8CF85EC8093BC0080916D048230E1F387
:101A500080916B048F3F91F080916B04803281F014
:101A600080916B04803371F084E010922204109214
:101A7000440410922104089585EEE4CF80E0F5CF70
:101A800082E0F3CF83E0F1CF08950895242F30E072
:101A9000A8EFB3E05B96ED91FC915C97AB01682FEA
:101AA00016968C9109940F931F93CF93DF938B011C
:101AB00020910104C42FD0E02C0F3D2F311D9091B7
:101AC000FF03913009F480682235310514F5E09167
:101AD0001104F091120447EA53E0682F8091FE034D
:101AE0000995F80130E020E02C173D0728F0DF9140
:101AF000CF911F910F910895A0910104A90149551B
:101B00005C4FA40FB52FB11D4C9141932F5F3F4FF8
:101B1000EBCF82E090E0EBCF60918D0570E0E0913B
:101B20008E05F0918F0530E020E090E080E02617F0
:101B300037073CF441915191840F951F2F5F3F4F20
:101B4000F6CF0E9441287093920560939105089505
:101B5000CF92DF92EF92FF922091AB05A22FB0E0DF
:101B6000E091AC05F091AD0550E040E060E070E040
:101B7000CB014A175B075CF4C190D190E190F190E2
:101B80006C0D7D1D8E1D9F1D4F5F5F4FF2CF30E0AE
:101B900050E040E00E9469282093AF053093B005E3
:101BA0004093B1055093B205FF90EF90DF90CF9036
:101BB00008951F93CF93DF93EA01122FDC01119652
:101BC0008D919C91DC01ED91FC910280F381E02DDF
:101BD0000995C817D90729F4812F0E94EC0C91E0D0
:101BE000811190E0892FDF91CF911F91089590E0AE
:101BF000FC01E859F74E2491FC01E655F74E34916B
:101C0000FC01ED56F74EE491EE23C9F0222339F0A2
:101C1000243001F1A8F4223069F1233079F1F0E0A9
:101C2000EE0FFF1FE158F74EA591B4918FB7F894CE
:101C3000EC91611126C030953E233C938FBF0895EF
:101C4000283071F0293091F0253049F780918000DB
:101C50008F7D03C0809180008F7780938000DFCFDD
:101C60008091B0008F778093B000D9CF8091B00081
:101C70008F7DF9CF84B58F7784BDD1CF84B58F7D2B
:101C8000FBCF3E2BDACF1092200410921F0410924B
:101C900022041092440410926D0481E080936C043D
:101CA0001092650461E082E10E94F70D61E083E13A
:101CB0000E94F70DE9EBF0E080818E7F80838081C8
:101CC0008D7F808388E48093B80085E48093BC0096
:101CD00084E49DE090931E0480931D0485E49DE0C0
:101CE00090931C0480931B040895CF93DF93EC0121
:101CF0008B818823A1F0888191E0909321048093C7
:101D00004304109222041092440481E00E94EC0CDF
:101D100091E0811190E0892FDF91CF9108950E9489
:101D2000430E81E08B83CE010E94750E982F8111A6
:101D3000E2CFF1CFFC0183858F3F19F061E00C9475
:101D4000F70D08958230910538F0880F991F880F9C
:101D5000991F05970197F1F70895AF92BF92CF921F
:101D6000DF92EF92FF920F931F93CF93DF93EC01DB
:101D700088819981892B89F06EBD0DB407FEFDCF56
:101D8000BEB48B2DDF91CF911F910F91FF90EF90FB
:101D9000DF90CF90BF90AF9008958885998511E02E
:101DA000892B09F010E8AA24A394862F812309F037
:101DB000A12C062F2C813D814E815F8160E271EA6A
:101DC00087E090E00E946928F22EB02EE12CC22E0E
:101DD000D12CFF2019F0C6010E94A20E8A85877FB0
:101DE00009F042C08D858F3F89F0902F912381E0CB
:101DF00009F480E08A1551F0EF85F8898F899923DD
:101E000069F19081892B8083AA24A394E989FA89B6
:101E10008081998D892B8083FF2019F0C6010E9453
:101E2000A20E8E858F3F39F0EB89FC898081988DD9
:101E3000892309F0E12AE989FA899081898D8095C1
:101E4000892380838E858F3F09F0BE2C88859985F4
:101E5000892BB9F5110F1111BCCF93CF90818095CB
:101E600089238083A12CD2CFE989FA898081998D39
:101E7000892B8083FF2019F0C6010E94A20E8D8558
:101E80008F3F49F0EF85F8898F89902F9123A9F032
:101E90009081892B8083E989FA899081898D809549
:101EA000892380838E858F3F69F2EB89FC8980814D
:101EB000988D892339F2E12AC5CF908180958923B5
:101EC000E9CF1695C8CF3FB7F8948091A3039091BE
:101ED000A403A091A503B091A60326B5A89B05C0B5
:101EE0002F3F19F00196A11DB11D3FBFBA2FA92F99
:101EF000982F8827BC01CD01620F711D811D911D96
:101F000042E0660F771F881F991F4A95D1F7089501
:101F10008F929F92AF92BF92CF92DF92EF92FF92F9
:101F20006B017C010E94630F4B015C01C114D10461
:101F3000E104F104B9F00E94630F681979098A0974
:101F40009B09683E73408105910580F321E0C21A28
:101F5000D108E108F10888EE880E83E0981EA11CE4
:101F6000B11CE4CFFF90EF90DF90CF90BF90AF9087
:101F70009F908F9008952FB7F89460919F03709170
:101F8000A0038091A1039091A2032FBF08950C9408
:101F9000880FAF92BF92CF92DF92EF92FF920F9392
:101FA0001F93CF93DF936C017B018B01040F151FEF
:101FB000EB015E01AE18BF08C017D10759F0699157
:101FC000D601ED91FC910190F081E02DC6010995BB
:101FD000892B79F7C501DF91CF911F910F91FF9068
:101FE000EF90DF90CF90BF90AF900895FC01538D9C
:101FF000448D252F30E0842F90E0821B930B5417E3
:1020000010F0CF96089501970895FC01918D828D6F
:10201000981761F0A28DAE0FBF2FB11D5D968C9108
:10202000928D9F5F9F73928F90E008958FEF9FEF47
:102030000895FC01918D828D981731F0828DE80F03
:10204000F11D858D90E008958FEF9FEF0895FC01BD
:10205000918D228D892F90E0805C9F4F821B91098A
:102060008F73992708958EE694E00E94271021E04F
:10207000892B09F420E0822F089580E090E0892BDD
:1020800029F00E94331081110C9400000895FC0186
:10209000A48DA80FB92FB11DA35ABF4F2C91848DC9
:1020A00090E001968F739927848FA689B7892C9326
:1020B000A089B1898C91837080648C93938D848D79
:1020C000981306C00288F389E02D80818F7D80837C
:1020D0000895EF92FF920F931F93CF93DF93EC013C
:1020E00081E0888F9B8D8C8D98131AC0E889F989BF
:1020F000808185FF15C09FB7F894EE89FF896083C2
:10210000E889F98980818370806480839FBF81E042
:1021100090E0DF91CF911F910F91FF90EF90089584
:10212000F62E0B8D10E00F5F1F4F0F731127E02E5F
:102130008C8D8E110CC00FB607FCFACFE889F98997
:10214000808185FFF5CFCE010E944710F1CFEB8D46
:10215000EC0FFD2FF11DE35AFF4FF0829FB7F8946B
:102160000B8FEA89FB8980818062CFCFCF93DF9389
:10217000EC01888D8823B9F0AA89BB89E889F9899F
:102180008C9185FD03C0808186FD0DC00FB607FCD4
:10219000F7CF8C9185FFF2CF808185FFEDCFCE0107
:1021A0000E944710E9CFDF91CF91089580911F04DD
:1021B00090912004891B990B08950895089585ED49
:1021C0008093BC008091BC0084FDFCCF10926D0414
:1021D000089520914503260F3327331F21323105FF
:1021E000ECF420916D04FC0190E080E0243069F073
:1021F00082E00895A09145032191AC014B5D5C4FB5
:10220000A40FB52FB11D2C930196861798F38091DA
:102210004503680F6093450380E0089581E00895C9
:102220000895E091200480911F04E81730F4F0E055
:10223000EB5BFB4F808190E008958FEF9FEF089557
:102240009091200480911F042FEF3FEF981748F4DE
:10225000E92FF0E0EB5BFB4F208130E09F5F909334
:102260002004C9010895CF92DF92EF92FF920F935D
:102270001F93CF93DF937C01CB018A01209121042E
:10228000222389F0EB016B01C40ED51ECC15DD05B0
:1022900069F06991D701ED91FC910190F081E02DF9
:1022A000C7010995F3CF642F0E94E910C801DF919F
:1022B000CF911F910F91FF90EF90DF90CF900895F5
:1022C000CF93DF931F92CDB7DEB7698320912104AE
:1022D0002223F9F020914404203258F021E030E02C
:1022E000FC013383228390E080E00F90DF91CF9157
:1022F000089580912204E82FF0E0ED5DFB4F998175
:1023000090838F5F809322048093440481E090E067
:10231000ECCF61E0CE0101960E94E910F7CFEF9279
:10232000FF920F931F93CF93DF937A01890191E07E
:102330009093210480934304109222041092440449
:102340008BE095E00E946011E7010E0D1F1DC01784
:10235000D10731F069918BE095E00E946011F7CFD1
:1023600081E00E94EC0C90E080E0DF91CF911F9122
:102370000F91FF90EF90089590E080E008958EBD5A
:1023800000000DB407FEFDCF8EB508950F931F9387
:10239000CF93DF93182F092FC4E8D5E060E08A813E
:1023A0000E94F70D802F0E94BF11812F0E94BF1144
:1023B000182F1F7080E00E94BF11082F61E08A81F2
:1023C0000E94F70DC801DF91CF911F910F910895E1
:1023D0008F929F92AF92BF92CF92DF92EF92FF9235
:1023E0000F931F93CF937C01DC01CC91CC2ED12C89
:1023F00010E000E0812C912C54010C151D05C4F453
:10240000C801880F991F880F991FD7011196ED9168
:10241000FC91E80FF91F2081318142815381C50170
:10242000B4010E94C0284B015C010F5F1F4FE5CF34
:102430006C2F70E090E080E00E94D2299B01AC01FB
:10244000C501B4010E943129F70164837583868335
:102450009783CF911F910F91FF90EF90DF90CF90D6
:10246000BF90AF909F908F900895FC0190E0808185
:10247000981778F484E0989F90011124A181B2818B
:10248000A20FB31F4D935D936D937C9313979F5F42
:10249000EECFCF010C94E8110F931F93FC018A013A
:1024A0009B01838160810E94352844E0949FC00194
:1024B0001124A181B281A80FB91F0D931D932D93F3
:1024C0003C93139783818F5F8383CF011F910F917B
:1024D0000C94E81180E496E00E94C611BC0190E0E3
:1024E00080E00E94D22920E030E040E859E30E94D9
:1024F000892A20E030E44EE455E40E94892A2DEC3C
:102500003CEC4CE850E40E94892A24E13EEA47E88A
:102510005FE30E94892A0E94A329CB010895CF93EB
:10252000DF9380E497E00E94C61180E896E00E9465
:10253000C6119C01CBEAD5E08B8168810E943528C9
:1025400044E0949FC0011124E981FA81E80FF91F4A
:10255000C901B0E0A0E080839183A283B3838B8123
:102560008F5F8B830E94A80D6C817D818E819F81FE
:102570000E94D22920E030E040E859E30E94892AF5
:1025800023E333E343E550E40E94892A23E333E362
:1025900043ED5FE30E94BF282EEA37E441EE5EE39D
:1025A0000E9431292AE038EE4CE151E40E94892A48
:1025B0002AE038EE4CE151E40E94BF28DF91CF9130
:1025C00008958CBD9DBD0895CF93DF93EC01888164
:1025D0009981892B31F0EA81FB81808191810E9470
:1025E000E1128B858F3F29F060E0DF91CF910C9451
:1025F000F70DDF91CF9108958F929F92AF92BF9286
:10260000CF92DF92EF92FF920F931F93CF93DF93BE
:102610007C014B016A01B22EA32E0E94E412E40158
:10262000C80CD91CCC15DD0569F4CB2DDA2D0C0FA7
:102630001D1FC017D10759F06FEFC7010E94AD0EE3
:102640008993F7CF6991C7010E94AD0EEBCFC70107
:102650000E949A0E81E0DF91CF911F910F91FF9020
:10266000EF90DF90CF90BF90AF909F908F900895A4
:102670008F929F92AF92BF92CF92DF92EF92FF9292
:102680000F931F93CF93DF937C01B62EA72E6A0181
:1026900049010E94E412E401080D191DC017D10779
:1026A00061F4CB2DDA2DCC0EDD1ECC15DD0551F0FD
:1026B0006991C7010E94AD0EF8CF6991C7010E94D0
:1026C000AD0EECCFC7010E949A0E81E0DF91CF9151
:1026D0001F910F91FF90EF90DF90CF90BF90AF9040
:1026E0009F908F900895AF92BF92CF92DF92EF921A
:1026F000FF920F931F93CF93DF9300D0CDB7DEB738
:10270000DC01211103C01A962C911A97253008F08C
:1027100043C051964D935D936D937C93549790E095
:1027200080E0E22EF12C8E159F05B4F41C962C91BE
:102730001C9721110AC0FD01E80FF91F4587452F9D
:10274000562F672F77270196EECFF701E81BF90B7D
:10275000EA0FFB1F4487F3CF6D018DE0C80ED11C3B
:1027600018969C91189719968C91199799838A833A
:10277000AD90BC901197A114B10409F441C01B960F
:102780000C9110E098012E0D3F1DD50114968D91EE
:102790009C918217930710F480E016C0F5018181A7
:1027A0009281208131E030932104209343041092E0
:1027B0002204109244040115110599F421E0A701A7
:1027C000B601C5010E94D90D0F900F90DF91CF91F6
:1027D0001F910F91FF90EF90DF90CF90BF90AF903F
:1027E0000895DC01ED91FC910280F381E02DA801B8
:1027F000BE016F5F7F4F09950817190769F6DECF95
:102800001296ED91FC911397309749F116962D9100
:102810003C9117971B960C9110E02330310571F411
:102820008E7F89839A830F5F1F4F9E012F5F3F4FDB
:10283000A701B601CF010E943813C6CF211531057B
:1028400019F49F779983F1CF2230310511F4906804
:10285000F9CF2130310549F79F779064F3CF149673
:10286000ED91FC911597309709F496CF80858823D8
:1028700009F492CFA680B780A114B10409F48CCFDB
:10288000870196011B964C91BE016F5F7F4F81853A
:102890009285F501099598CF1F93CF93DF931F92EF
:1028A000CDB7DEB7182F198241E0BE016F5F7F4FB1
:1028B0008CE70E94530D009759F489818E7F812BFC
:1028C000898341E0BE016F5F7F4F8CE70E94460D18
:1028D0000F90DF91CF911F910895FF920F931F9357
:1028E000CF93DF93D82FF42E052FC22F81E0809352
:1028F0002104D093430410922204109244048BE0EC
:1029000095E00E94601181E00E94EC0C6C2FC132B6
:1029100008F060E241E08D2F0E94AC0C182F10925D
:10292000200480931F04CF2DD02F809120041817EE
:1029300031F08BE095E00E9420118993F6CF90E072
:1029400080E0DF91CF911F910F91FF9008952F921A
:102950003F924F925F926F927F928F929F92AF922F
:10296000BF92CF92DF92EF92FF920F931F93CF937C
:10297000DF9300D0CDB7DEB77C01DC011A960C9155
:102980004C01BDE08B0E911CFC01908581859983E3
:102990008A83C080D180C114D10409F464C0438506
:1029A00050E0D60114968D919C9115978417950748
:1029B00008F4CCC08C9191E090932104809343045F
:1029C000109222041092440420E0BE016F5F7F4FFA
:1029D000C6010E94D90D882309F4B8C0602E712C5D
:1029E000B12CA12CA614B70408F05EC0F6018481B6
:1029F000958183010A191B098017910708F48C013E
:102A000041E0C301801B910BA816B90608F440E011
:102A1000602F013208F060E2D6018C910E94AC0C6C
:102A20001092200480931F048017110609F08EC0B5
:102A300024014A0C5B1C1201C101841995098017FD
:102A4000910770F4F60181819281DC01ED91FC9196
:102A50000284F385E02D0995F10181931F01ECCFEC
:102A6000A00EB11EBFCFD7010280F381E02D3097B9
:102A700009F44AC016962D913C91179710E01B96C9
:102A80004C9150E02330310579F5816089839A8338
:102A90004F5F5F4F9401BE016F5F7F4FCF010E9478
:102AA000FC12882309F452C0D7011A964C9150E0C9
:102AB00030E020E060E070E0CB01241735070CF037
:102AC00048C0982F872F762F6627D7011C96EC9148
:102AD000E11137C0FA01E21BF30BEE0DFF1DE48597
:102AE0006E2B2F5F3F4FE9CF2115310519F4906808
:102AF0009983D0CF2230310511F49F77F9CF21305F
:102B0000310541F6906CF4CFF701A481B58110979F
:102B1000E9F018968C9118978823C1F01496CD90FF
:102B2000DC901597C114D10489F010E0940143851D
:102B3000BE016F5F7F4F19968D919C91F6010995AB
:102B4000B0CFF701E20FF31FE585CACF6FEF7FEF3C
:102B5000CB010F900F90DF91CF911F910F91FF90BC
:102B6000EF90DF90CF90BF90AF909F908F907F902D
:102B70006F905F904F903F902F9008958F929F920B
:102B8000AF92BF92CF92DF92EF92FF920F931F937B
:102B9000CF93DF93EC014A015B01888199810E9408
:102BA000A7142A8101E010E002C0000F111F2A952E
:102BB000E2F701501109012E000C220B330BAB81FF
:102BC000680179010A2E04C0CC0CDD1CEE1CFF1C30
:102BD0000A94D2F7C094D094E094F094C622D722FD
:102BE000E822F922E881F981B901A8014821592197
:102BF0006A217B2104C0440F551F661F771FAA95C9
:102C0000D2F74C295D296E297F292285CF01DF91DA
:102C1000CF911F910F91FF90EF90DF90CF90BF90D9
:102C2000AF909F908F900C9473130F931F93CF933B
:102C3000DF93EC01888199810E94A714AB01BC014C
:102C40002A8181E090E002C0880F991F2A95E2F75F
:102C50000197092E000CAA0BBB0B2B8104C07695A3
:102C60006795579547952A95D2F78C019D010423C6
:102C7000152326233723C901B801DF91CF911F9176
:102C80000F9108954F925F926F927F928F929F92D1
:102C9000AF92BF92CF92DF92EF92FF920F931F936A
:102CA000CF93DF93CDB7DEB7AE970FB6F894DEBF04
:102CB0000FBECDBF8C01FC0144A955A922A933A99F
:102CC0001A8A1B8A1C8A1D8A5C834B833A83298358
:102CD00018861F8281E08C871A8619868D8793E07B
:102CE0009B871FA218A619A61AA6598F488F3F8B3B
:102CF0002E8B1D8E1C8E89A323E030E03F8F2E8FFC
:102D00008AA398A3CE0146960E94A7146B017C016A
:102D100037E1F694E794D794C7943A95D1F7C0FC7D
:102D20009A95F801628F738F848F958FCE010196EB
:102D30000E94A7146B017C01DC01CB0127E1B69551
:102D4000A795979587952A95D1F780FDFA94F80174
:102D5000C68AD78AE08EF18E628D738D848D958DB3
:102D60000E94D4294B015C01F80162A573A584A5DA
:102D700095A50E94D4299B01AC01C501B4010E9414
:102D800031292B013C01F80142A253A264A275A291
:102D900062817381072E000C880B990B0E94D42945
:102DA000A30192010E94892A4B015C01F801608114
:102DB0007181072E000C880B990B0E94D42920E00A
:102DC00030E040E05FE30E94892A9B01AC01C5012D
:102DD000B4010E94C028F801668F778F80A391A369
:102DE000C701B6010E94D4296B017C01F80166A5D8
:102DF00077A580A991A90E94D4299B01AC01C701A4
:102E0000B6010E9431296B017C01F801648575854A
:102E1000072E000C880B990B0E94D429A70196015C
:102E20000E94892A4B015C01F80160857185072E9B
:102E3000000C880B990B0E94D4299B01AC01C501A1
:102E4000B4010E94C028A70196010E94892A4B0163
:102E50005C01F80162897389848995890E94D4296B
:102E60009B01AC01C501B4010E94C028A7019601D5
:102E70000E94892A4B015C01F8016685778580896B
:102E800091890E94D4299B01AC01C501B4010E9423
:102E9000C0284B015C01F80162857385072E000C88
:102EA000880B990B0E94D429A70196010E94892AB8
:102EB0006BA77CA78DA79EA7F80166817781072E57
:102EC000000C880B990B0E94D4299B01AC016BA5C7
:102ED0007CA58DA59EA50E94C028A70196010E94F1
:102EE000892A6B017C01F80164817581072E000C31
:102EF000880B990B0E94D4299B01AC01C701B60134
:102F00000E94C028A30192010E94892A9B01AC0162
:102F1000C501B4010E94C028F80166A377A380A769
:102F200091A7AE960FB6F894DEBF0FBECDBFDF916E
:102F3000CF911F910F91FF90EF90DF90CF90BF90B6
:102F4000AF909F908F907F906F905F904F9008957B
:102F50000C94972B0C94972BFC0101900020E9F71F
:102F60003197AF01481B590BBC018EE694E00C94DD
:102F7000C90F8F929F92AF92BF920F931F93CF93DF
:102F8000DF93CDB7DEB7A1970FB6F894DEBF0FBEC3
:102F9000CDBF19A2423008F44AE08E010F5D1F4FE9
:102FA000842E912CB12CA12CA50194010E9469289A
:102FB000E62FB901CA01EA30F4F4E05DD801EE93DE
:102FC0008D01232B242B252B79F790E080E010979F
:102FD00019F0CD010E94AC17A1960FB6F894DEBF90
:102FE0000FBECDBFDF91CF911F910F91BF90AF90DA
:102FF0009F908F900895E95CE1CFCF92DF92EF929E
:10300000FF92CF93DF936B017C016DE28EE694E03B
:103010000E946910EC0166277727CB016C197D09A6
:103020008E099F094AE00E94B9178C0F9D1FDF91FE
:10303000CF91FF90EF90DF90CF9008950C94AC1754
:103040000C941E184F925F926F927F928F929F9274
:10305000AF92BF92CF92DF92EF92FF920F931F93A6
:10306000CF936B017C01742EAC019B010E94F62A68
:10307000882399F088E491E0CF911F910F91FF9000
:10308000EF90DF90CF90BF90AF909F908F907F9008
:103090006F905F904F900C94AC1746015701E894E5
:1030A000B7F82FEF3FEF4FE75FE7C501B4010E948C
:1030B000F62A81110DC02FEF3FEF4FE75FE7C50103
:1030C000B4010E942C2918161CF48CE491E0D4CF92
:1030D0002FEF3FEF4FE75FE4C701B6010E94842A5C
:1030E00018161CF480E591E0C7CF2FEF3FEF4FE7B4
:1030F0005FECC701B6010E942C2987FDF3CF20E0C9
:1031000030E0A901C701B6010E942C2910E000E0BF
:1031100087FF0AC06DE28EE694E00E9469108C0180
:10312000F7FAF094F7F8F094C0E060E070E080E027
:103130009FE37C1641F020E030E040E251E40E9441
:103140003129CF5FF6CFA70196010E94C0282B013D
:103150003C010E94A3294B015C014AE00E94B9177F
:103160007C01E00EF11ECC23C1F1C501B4010E9427
:10317000D2299B01AC01C301B2010E94BF284B01BF
:103180005C016EE28EE694E00E946910E80EF91E82
:10319000C15018F120E030E040E251E4C501B40133
:1031A0000E94892A2B013C010E94A3294B01B12CCA
:1031B000A12C4AE0C501B4010E94B917E80EF91E1E
:1031C000C501B4010E94D2299B01AC01C301B20127
:1031D0000E94BF284B015C01DBCFC701CF911F913B
:1031E0000F91FF90EF90DF90CF90BF90AF909F90A6
:1031F0008F907F906F905F904F9008950F931F93E3
:10320000CF93DF93EB01DC0114960D911C91C80163
:103210000E944216209779F1FE01349680E2DF0188
:103220001D928A95E9F781E090E0A0E0B0E0888304
:103230009983AA83BB83F80182AD93ADA4ADB5ADEC
:103240008C839D83AE83BF838DE090E0A0E0B0E0EF
:1032500088879987AA87BB870E94BB0F688B798B69
:103260008A8B9B8BF801868D978DA0A1B1A18C8B49
:103270009D8BAE8BBF8B81E0DF91CF911F910F9122
:1032800008950F931F93CF93DF93EB01DC01149606
:103290000D911C91C8010E9442162097B9F1FE01C0
:1032A000349680E2DF011D928A95E9F781E090E093
:1032B000A0E0B0E088839983AA83BB83F80182AD44
:1032C00093ADA4ADB5AD8C839D83AE83BF8386E003
:1032D00090E0A0E0B0E088879987AA87BB870E942A
:1032E000BB0F688B798B8A8B9B8B20E030E048EC9E
:1032F00052E4D80196966D917D918D919C9199970C
:103300000E9431296C8B7D8B8E8B9F8B81E0DF91AE
:10331000CF911F910F9108950F931F93CF93DF9338
:103320008C01EB0188E2FB0111928A95E9F74BE0F1
:1033300050E064E571E0CE010E94202C1B8681E004
:1033400090E0A0E0B0E08C879D87AE87BF87F80152
:1033500082819381092E000CAA0BBB0B888B998B61
:10336000AA8BBB8B86E090E0A0E0B0E08C8B9D8BBD
:10337000AE8BBF8B1CA21DA21EA21FA280E090E0FC
:10338000A6E9B3E48C8F9D8FAE8FBF8F80E090E075
:10339000A6E9B4E4888F998FAA8FBB8F8FE692E15C
:1033A000A3E0BBE388A399A3AAA3BBA3DF91CF911A
:1033B0001F910F9108950F931F93CF93DF938C016B
:1033C000EB0188E2FB0111928A95E9F74BE050E0AE
:1033D00064E571E0CE010E94202C1B8681E090E024
:1033E000A0E0B0E08C879D87AE87BF87F80182811F
:1033F0009381092E000CAA0BBB0B888B998BAA8B8F
:10340000BB8B8DE090E0A0E0B0E08C8B9D8BAE8B11
:10341000BF8B1CA21DA21EA21FA280E090E0A0E212
:10342000B2EC8C8F9D8FAE8FBF8F80E090E0AAEAC8
:10343000B2E4888F998FAA8FBB8F8AE097EDA3E2C1
:10344000BCE388A399A3AAA3BBA3DF91CF911F914B
:103450000F9108951F920F920FB60F9211242F9380
:103460003F938F939F93AF93BF9380919F039091CE
:10347000A003A091A103B091A20330919E0323E089
:10348000230F2D3768F126E8230F0296A11DB11DE9
:1034900020939E0380939F039093A003A093A10386
:1034A000B093A2038091A3039091A403A091A503DC
:1034B000B091A6030196A11DB11D8093A303909323
:1034C000A403A093A503B093A603BF91AF919F91CE
:1034D0008F913F912F910F900FBE0F901F901895D5
:1034E0000196A11DB11DD4CF1F920F920FB60F925E
:1034F00011242F933F934F935F936F937F938F93F9
:103500009F93AF93BF93EF93FF938EE694E00E9457
:103510004710FF91EF91BF91AF919F918F917F9154
:103520006F915F914F913F912F910F900FBE0F9030
:103530001F9018951F920F920FB60F9211242F9380
:103540008F939F93EF93FF93E0917E04F0917F041C
:103550008081E0918404F091850482FD1BC09081FC
:10356000809187048F5F8F7320918804821741F0C8
:10357000E0918704F0E0E259FB4F958F8093870438
:10358000FF91EF919F918F912F910F900FBE0F9010
:103590001F9018958081F4CF1F920F920FB60F9253
:1035A00011242F933F934F935F936F937F938F9348
:1035B0009F93AF93BF93EF93FF938091B900887F60
:1035C000803609F44AC0F0F5883209F4A7C018F52E
:1035D000803109F49BC0B8F4882309F405C1883010
:1035E00009F494C0FF91EF91BF91AF919F918F919A
:1035F0007F916F915F914F913F912F910F900FBEEF
:103600000F901F901895883109F488C0803251F7C7
:1036100080936B0414C0803409F4A5C040F4803357
:10362000B9F38833F9F680936B0485ECBCC0803520
:1036300009F489C0883509F49EC0883499F60E943F
:10364000DF10D0CF883909F494C038F5883729F0D5
:1036500050F4883611F0803729F683E080936D04AA
:103660001092670357C0883809F483C0803919F075
:10367000803809F0B7CF80916703803208F079C0B5
:10368000E091670381E08E0F809367038091BB0018
:10369000F0E0E95BFC4F80833DC0803B39F0E0F413
:1036A000803A09F485C0883A09F09CCF84E0809381
:1036B0006D041092460310924503E0911D04F091B1
:1036C0001E0409958091450381110FC081E080930C
:1036D00045031092250309C0803C09F4A6CF883C1D
:1036E00009F4A3CF883B09F07DCFE091460381E048
:1036F0008E0F80934603F0E0EB5DFC4F808180935A
:10370000BB00909146038091450331C080916604CF
:103710008093BB0085EC8093BC0064CF90916804DB
:10372000809167049817B8F58091690490916A04B4
:10373000E091680421E02E0F20936804E80FF92F30
:10374000F11D8081E5CF2091690430916A04E091F8
:10375000680481E08E0F809368048091BB00E20FC3
:10376000F32FF11D8083909168048091670498176E
:1037700088F285E8D0CF2091690430916A04E09105
:10378000680481E08E0F809368048091BB00E20F93
:10379000F32FF11D808380916C04811150CF81E063
:1037A0008093650484EA8093BC0010926D041ACF64
:1037B00085EC8093BC0010926D0480916703803289
:1037C00030F4E0916703F0E0E95BFC4F1082609118
:1037D000670370E0E0911B04F0911C0487E493E020
:1037E000099510926703FECE10926B0428CF1F92AA
:1037F0000F920FB60F921124CF92DF92EF92FF92A9
:103800000F931F932F933F934F935F936F937F93E8
:103810008F939F93AF93BF93CF93DF93EF93FF93D8
:103820008091240381114EC081E080932403789419
:103830000E948F1260935E0570935F058093600510
:103840009093610520915A0530915B0540915C058C
:1038500050915D050E94C028AB01BC018BE995E049
:103860000E944C1280916205909163059C01215049
:1038700031092230310508F03EC02AE037ED43EA35
:103880005CE360919F057091A0058091A1059091E6
:10389000A2050E94892A9B01AC0160915605709196
:1038A000570580915805909159050E94C028609352
:1038B0005605709357058093580590935905F894D1
:1038C00010922403FF91EF91DF91CF91BF91AF91BF
:1038D0009F918F917F916F915F914F913F912F9128
:1038E0001F910F91FF90EF90DF90CF900F900FBE40
:1038F0000F901F901895009709F05BC0C0909F052E
:10390000D090A005E090A105F090A205C701B601F6
:103910009F772AE037ED43E25DE30E942C2987FF81
:10392000CECFB701A60183E995E00E944C12209109
:10393000940530919505C0919605D0E0809193054E
:10394000082F10E081508C0F9D2F911DB8010E940F
:103950005528FC01EE0FFF1FEE0FFF1FE20FF31FB4
:10396000CE01B8010E945528880F991F880F991F12
:10397000280F391FD9012D913D914D915C916081A6
:103980007181828193810E942C29811198CF80912D
:103990005E0590915F05A0916005B0916105B058FA
:1039A00080935A0590935B05A0935C05B0935D05E9
:1039B00086CF059709F4A2CF82CFCF93DF93EC0196
:1039C000688324E0629FC00111240E94FB2A9A832D
:1039D00089831C821D821E821F8240E050E0BA0152
:1039E000CE01DF91CF910C943512CF93DF931092DB
:1039F00071041092700488EE93E0A0E0B0E0809330
:103A0000720490937304A0937404B09375042CE033
:103A100031E030936F0420936E0425EC30E0309356
:103A20007B0420937A0424EC30E030937D042093CF
:103A30007C0420EC30E030937F0420937E0421EC62
:103A400030E0309381042093800422EC30E0309306
:103A500083042093820426EC30E030938504209385
:103A600084041092870410928804109289041092A2
:103A70008A0410920E0510920D0580930F05909305
:103A80001005A0931105B09312058EE191E090937B
:103A90000C0580930B0580E48093AB0580E091E0FA
:103AA0000E94FB2A8093AC059093AD051092AF0560
:103AB0001092B0051092B1051092B205FC0181E49C
:103AC000815029F01192119211921192F9CF0E9416
:103AD000A80D60E283EA95E00E94DD1C60E18BE9BD
:103AE00095E00E94DD1C60E183E995E00E94DD1C09
:103AF00088E080938D0580E190E00E94FB2A80930E
:103B00008E0590938F051092920510929105FC01FD
:103B100089E0815019F011921192FBCF0E948C0D17
:103B200084EE9CE090938505809384058EE08093DD
:103B300086051092870510928805109289051092CB
:103B40008A0587E195E090938C0580938B05109210
:103B50007C0510927D0510927E0510927F051092D3
:103B600080051092810510927005109271051092D7
:103B70007205109273058BE995E090936905809327
:103B800068058EE595E090936F0580936E058AE554
:103B900095E090936D0580936C0586E595E0909394
:103BA0006B0580936A0583EA95E09093670580939F
:103BB0006605109278051092790510927A05109298
:103BC0007B0585E090E09093630580936205909378
:103BD0006505809364051092830510928205C8E103
:103BE000D5E010924B0510924A0510924D051092A7
:103BF0004C0586E090E00E94FB2AFC018EE391E0F8
:103C00009183808386E391E093838283D583C48309
:103C1000F0934F05E0934E0586E090E00E94FB2A6A
:103C2000FC0180E391E09183808387E391E09383BB
:103C30008283D583C483F0935105E0935005DF91CF
:103C4000CF910895CF93DF93CDB7DEB7CE56D1098C
:103C50000FB6F894DEBF0FBECDBF789484B58360F5
:103C600084BD85B5836085BD80916E008160809341
:103C70006E0092E09093810080918100816080933A
:103C80008100809180008160809380008091B100EC
:103C900084608093B1008091B00081608093B00017
:103CA00087E880937A001092C100E0917E04F09141
:103CB0007F049083E0917A04F0917B041082E0917C
:103CC0007C04F0917D0480E1808310928604E09171
:103CD0008204F091830486E08083E0918004F09177
:103CE0008104808188698083E0918004F09181045F
:103CF00080818F7D80838EE00E948D0C61E08EE05C
:103D00000E94F70D1FB7F89480916803811124C0B9
:103D1000EDE9F8E18491E4EBF8E19491E82FF0E02B
:103D2000EE0FFF1FE757F74EA591B491EC91E923F1
:103D300021F461E08AE00E94F70D8AE00E948D0C78
:103D40008CB580618CBD8CB580648CBD8DE00E948B
:103D50008D0C8BE00E948D0C809168038F5F8093A7
:103D600068031FBF81E590E00E94E1128BE591E0BE
:103D70000E941E1880E10E948D0C60E080E10E948C
:103D8000F70D88E00E948D0C60E088E00E94F70D3E
:103D900089E00E948D0C60E089E00E94F70D86E0CA
:103DA0000E948D0C61E086E00E94F70D60E086E0E5
:103DB0000E94F70D87E00E948D0C80918303882379
:103DC00091F060E088E00E94F70D60E089E00E94D9
:103DD000F70D61E086E00E94F70D60E086E00E944A
:103DE000F70D1092830387E791E00E941E188091DF
:103DF0004A0590914B05892BA1F486E090E00E9442
:103E0000FB2AFC0187E780838BE095E09283818326
:103E1000138280E290E095838483F0934B05E093D6
:103E20004A0510924D0510924C05E0904A05F0901D
:103E30004B050E94430E11E0F7011383C7010E9456
:103E4000750E882309F477C420914C0530914D05F7
:103E500080914A0590914B0565961CAE1DAE1EAE35
:103E60001FAE659724963FAF2EAF249722969FAF43
:103E70008EAF229728961FAE1EAE28972C961FAFA6
:103E80002C978DE090E02A969FAF8EAF2A972D96C3
:103E90001FAE2D972B961FAF2B97CE01805C9F4FA7
:103EA0000E94A714603171058105910509F043C492
:103EB00020914C0530914D0580914A0590914B051C
:103EC0001FA218A619A61AA6398F288F9F8B8E8B32
:103ED0001D8E1C8E19A38CE090E09F8F8E8F1AA2EE
:103EE00018A37E01F6E1EF0EF11C20E049E850E056
:103EF00060E070E0C7010E9473136AE070E080E048
:103F000090E00E94880F20914C0530914D058091E2
:103F10004A0590914B051A8A1B8A1C8A1D8A3C838C
:103F20002B839A83898318861F821C8788E090E000
:103F30009A8789871D861B879E012F5F3F4F6901E6
:103F40003CA72BA71DA786E08EA7CE018B960E94CB
:103F50001516672B682B692B39F461E070E080E05F
:103F600090E00E94880FF1CF20914C0530914D05D3
:103F700080914A0590914B051FA218A619A61AA672
:103F8000398F288F9F8B8E8B1D8E1C8E81E089A38D
:103F900028E030E03F8F2E8F1AA288A36796FFAEED
:103FA000EEAE679768968FAF689787E069968FAF98
:103FB0006997CE018B5A9F4F0E941516672B682B6D
:103FC000692B39F461E070E080E090E00E94880F96
:103FD000F0CF8E01055D1F4F20E1A22EB12C992458
:103FE000939420914C0530914D0580914A05909114
:103FF0004B051A8A1B8A1C8A1D8A3C832B839A8351
:10400000898318861F829C86BA86A9861D869B8610
:10401000C6010E94A714F80161938F01FFEFAF1A48
:10402000BF0A22E2A216B104E1F68CA54BA530E14D
:10403000439FA0011124982F92959F70492B70E007
:1040400060E08A019B019BE03695279517950795BF
:104050009A95D1F7012B022B032B19F050516109CE
:104060007109509319054093180590E0982F8827FF
:1040700088279F702DA5822BB0E0A0E0AC01BD0188
:104080000BE076956795579547950A95D1F7452B9F
:10409000462B472B19F09051A109B10990931B05AC
:1040A00080931A0588A94EA550E070E060E0FCE01E
:1040B000440F551F661F771FFA95D1F70FA510E023
:1040C00030E020E0A4E0000F111F221F331FAA954B
:1040D000D1F7402B512B622B732B982F92959F7009
:1040E000492B8A019B01B3E13695279517950795D2
:1040F000BA95D1F7012B022B032B11F060517109F6
:104100004093260550932705609328057093290551
:1041100090E0B0E0A0E0DC01992788278827992764
:10412000AF70BB2749A95AA954274527542770E0E7
:1041300060E0842B952BA62BB72BAC01BD01E3E1EE
:104140007695679557954795EA95D1F7452B462B78
:10415000472B09F0509780932A0590932B05A09345
:104160002C05B0932D058BA99CA998278927982702
:10417000B0E0A0E0AC01BD013FE0769567955795B2
:1041800047953A95D1F7452B462B472B09F01197C8
:1041900090931D0580931C058DA99EA998278927BA
:1041A0009827B0E0A0E0AC01BD012FE076956795BF
:1041B000579547952A95D1F7452B462B472B09F064
:1041C000119790931F0580931E058FA998AD98278E
:1041D00089279827B0E0A0E0AC01BD010FE07695FB
:1041E0006795579547950A95D1F7452B462B472B51
:1041F00009F01197909321058093200589AD9AAD20
:10420000982789279827B0E0A0E0AC01BD011FE006
:1042100076956795579547951A95D1F7452B462B77
:10422000472B09F0119790932305809322058BADBE
:104230009CAD982789279827B0E0A0E0AC01BD018C
:10424000FFE07695679557954795FA95D1F7452BF9
:10425000462B472B09F01197909325058093240551
:1042600020914C0530914D0580914A0590914B0568
:104270001FA218A619A61AA6398F288F9F8B8E8B7E
:104280001D8E1C8E11E019A386E090E09F8F8E8F0B
:104290001AA218A36B96FFAEEEAE6B9703E06C9676
:1042A0000FAF6C9744E0742E6D967FAE6D97679656
:1042B000FFAEEEAE679768967FAE689769961FAEC1
:1042C000699746E050E060E070E0CE01875A9F4F6A
:1042D0000E94BE1546E050E060E070E0CE018B5ACF
:1042E0009F4F0E94BE1520914C0530914D05809145
:1042F0004A0590914B051A8A1B8A1C8A1D8A3C83A9
:104300002B839A83898318861F821C8759E0852E08
:10431000912C9A8689861D861B87DCA6CBA61DA7B5
:1043200082E08EA75E018BE2A80EB11C41E050E056
:1043300060E070E0C5010E94BE15212C60EE362EB3
:104340006FE0462E512C2092460530924705409250
:1043500048055092490520914C0530914D058091BA
:104360004A0590914B051CAE1DAE1EAE1FAE3EA77A
:104370002DA79CA78BA71AAA19AA1EAB87E090E0CD
:104380009CAB8BAB1FAA1DABA796BFAEAEAEA797DB
:10439000A8960FAFA897A9967FAEA997A396BFAE90
:1043A000AEAEA397A4967FAEA497A5961FAEA59791
:1043B00046E050E060E070E0CE018B599F4F0E94D4
:1043C000BE1546E050E060E070E0CE018F599F4F8F
:1043D0000E94BE152092420530924305409244054A
:1043E0005092450520914C0530914D0580914A052C
:1043F00090914B051FA218A619A61AA6398F288FCF
:104400009F8B8E8B1D8E1C8E19A39F8E8E8E1AA253
:1044100018A36F96FFAEEEAE6F97A0961FAFA09752
:10442000A1960FAFA19741E050E060E070E0CE01AF
:10443000835A9F4F0E94BE1520914C0530914D0527
:1044400080914A0590914B051A8A1B8A1C8A1D8A05
:104450003C832B839A83898318861F821C8788E27A
:1044600090E09A8789871D861B876B96DFAECEAE5C
:104470006B976C961FAF6C9787E06D968FAF6D97BB
:104480006796BFAEAEAE679768961FAF689769969E
:104490008FAF6997CE01875A9F4F0E941516AB01C7
:1044A000BC01CE018B5A9F4F0E94BE1520914C0536
:1044B00030914D0580914A0590914B051A8A1B8ACF
:1044C0001C8A1D8A3C832B839A83898318861F82CA
:1044D0001C8788E090E09A8789871D861B87DF8A82
:1044E000CE8A088F198E47E050E060E070E0C70187
:1044F0000E94BE15BB24B39408E010E075E0972E2F
:10450000E4E0AE2E20914C0530914D0580914A0596
:1045100090914B051A8A1B8A1C8A1D8A3C832B8327
:104520009A83898318861F82BC861A8709871D860D
:10453000BB86DF8ACE8AB88E998EC7010E94151677
:10454000672B682B692B39F46AE070E080E090E01B
:104550000E94880FD7CF20914C0530914D05809156
:104560004A0590914B051A8A1B8A1C8A1D8A3C8336
:104570002B839A83898318861F82BC861A870987B2
:104580001D86BB86DF8ACE8AB88EA98EC7010E949F
:104590001516672B682B692BB9F28FE991E00E9401
:1045A000AC178CED91E00E94AC1761E080E10E94B5
:1045B000F70D0E94BB0F6093710370937203809399
:1045C00073039093740387EB91E00E941E180E947E
:1045D000430E89E18093FE0382E08093FF038DE622
:1045E00094E190931204809311048FE891E19093E9
:1045F00014048093130487EC9FE090931604809337
:10460000150488E08093090480E18093020480E42B
:1046100080930A0488EC91E00E942018198280910E
:10462000110490911204892B09F491C08091130414
:1046300090911404892B09F48AC08091FF03813082
:1046400009F082C08093010441E0BE016F5F7F4F9B
:1046500080E00E94530D892B09F079C089818093F5
:10466000FC03863109F073C080E18093020480E48A
:1046700080930A0482E090E0909304048093030402
:10468000B12C86EB66968FAF669741E0BE016B5A00
:104690007F4F8EE70E94460D892B31F08DEF91E020
:1046A0000E942018BB24B39464EF71E080E090E096
:1046B0000E94880F8091FC03863109F0CBC0809165
:1046C00009049EEF980F9F3308F0C4C080FF03C019
:1046D00081508093090488E690E0909308048093C9
:1046E000070421961FAE21971BA680E00E944C1460
:1046F0007C01E0911504F091160461E070E080E027
:1047000090E00995E114F10409F0A4C041E0BE0174
:10471000605C7F4F89E50E94460D8C014091090441
:104720002091070430910804A9E6B3E090E080E00E
:104730002E0D3F1D19C08CE891E00E94AC178CED46
:1047400091E00E94AC1729CF109201047DCF8FED2C
:1047500091E00E942018BB24B39493CFF901E80F95
:10476000F91FE491ED9301968417C0F3C70125E08A
:10477000969587952A95E1F78E8BC7019695879533
:104780008F70898341E0BE016F5F7F4F8BE50E9490
:10479000460D009781F441E0BE016A5E7F4F8CE5D3
:1047A0000E94460D009739F44091090469E673E0D0
:1047B0008EE50E94460D082B192B80910904E80E06
:1047C000F11CE11498E1F90608F4A8CF81E02196E4
:1047D0008FAF219741E0BE01605C7F4F89E50E9469
:1047E000460D7C01E0911504F091160466E970E035
:1047F00080E090E0099541E0BE01655D7F4F8AE26F
:104800000E94530D0E291F29082B192B8BA58130CF
:1048100009F50E944C146C0141E0BE016A5E7F4FB5
:104820008BE50E94530D7C0141E0BE016F5F7F4F1D
:104830008CE50E94530D2E892F7020930B04298143
:1048400020930C040C291D29E02AF12AE82AF92AD0
:10485000EF2831F089E292E00E942018BB24B39443
:1048600088E08093170410921A0482E08093180461
:1048700081E0809319041A8288EA898341E0FE016D
:1048800031967F01BF0180E40E94460D8C01E091CA
:104890001504F091160461E070E080E090E0099565
:1048A00041E0BE016E5F7F4F81E40E94460D802B88
:1048B000912B892B31F084E592E00E942018BB24D3
:1048C000B39480E090E0AAEFB4E48093F80390936F
:1048D000F903A093FA03B093FB03198241E0B701F7
:1048E0008DE70E94530D892B51F48981846089835F
:1048F00041E0B7018DE70E94460D892BF9F08CE766
:1049000092E00E94201808EE402E03E0502E612C09
:10491000712C80E0C82E80E0D82E92E0292E312C18
:1049200080919C0390919D03009769F0019709F491
:10493000E5C030929D0320929C03D4C0B110E3CF18
:1049400084EA92E0DECF0E94BB0F009175031091C4
:1049500076032091770330917803601B710B820BF3
:10496000930B653171058105910578F10E94BB0FAC
:104970006093750370937603809377039093780325
:104980000E948F12AB01BC018BE995E00E944C1292
:104990000E946A129C018091900560918D050E9491
:1049A0003528892F90E0880F991F40918E055091EE
:1049B0008F05840F951FFC01318320838091900522
:1049C0008F5F809390050E948C0D0E94BB0F009119
:1049D0007103109172032091730330917403601B73
:1049E000710B820B930B61347F418105910508F4B3
:1049F00079C080919F059091A005A091A105B091EB
:104A0000A205B05880935A0590935B05A0935C056E
:104A1000B0935D050E948F1220915A0530915B057D
:104A200040915C0550915D050E94C028AB01BC011E
:104A30008BE995E00E94351240919F055091A005A9
:104A40006091A1057091A20583E995E00E9435125D
:104A500021E030E030939D0320939C03F894109262
:104A600081008091810085608093810080916F003A
:104A7000826080936F0080918100806180938100CB
:104A80008CE990E09093890080938800789461E0AD
:104A900088E00E94F70D08E010E061E087E00E94E6
:104AA000F70D60E087E00E94F70D64E670E080E0BB
:104AB00090E00E94880F0150110979F786EC92E08E
:104AC0000E941E1860E088E00E94F70D60E080E11F
:104AD0000E94F70D61E086E00E94F70D60E086E03D
:104AE0000E94F70DC114D10409F41ACF0E943310AB
:104AF000882309F415CF0E94000012CF80919A03F9
:104B000090919B039C012F5F3F4F30939B03209319
:104B10009A03853691050CF464C186E0F701119281
:104B20008A95E9F746E0B70182E10E94530D892B8F
:104B300009F044C029813A81AF963FAF2EAFAF97BD
:104B40008B819C81AD969FAF8EAFAD97ED81FE813D
:104B5000AB96FFAFEEAFAB97809102048C3009F0BB
:104B6000DFC1C90137FD0F969C01B4E0359527954B
:104B7000BA95E1F7AF963FAF2EAFAF97AD968EAD3A
:104B80009FADAD9797FD0F96FC01A4E0F595E795D5
:104B9000AA95E1F7AD96FFAFEEAFAD97AB968EADB0
:104BA0009FADAB9797FD0F969C01E4E03595279557
:104BB000EA95E1F7AB963FAF2EAFAB978090F80345
:104BC0009090F903A090FA03B090FB03AF962EAD3E
:104BD0003FADAF97B901330F880B990B0E94D429D1
:104BE000A50194010E94892A20E030E040E058E3CA
:104BF0000E94892A60939603709397038093980389
:104C000090939903AD96EEADFFADAD97BF01FF0F49
:104C1000880B990B0E94D429A50194010E94892A2E
:104C200020E030E040E058E30E94892A609392033C
:104C3000709393038093940390939503AB962EAD5A
:104C40003FADAB97B901330F880B990B0E94D42964
:104C5000A50194010E94892A20E030E040E058E359
:104C60000E94892A60938E0370938F038093900330
:104C700090939103198241E0B70182E20E94530DA3
:104C8000892B09F07EC1298130E0A8EEB3E00E94B3
:104C9000AA286852764A8F4F9F4FA30192010E9423
:104CA0008B2820938A0330938B0340938C0350937B
:104CB0008D0320E030E040E858E360918E0370916E
:104CC0008F0380919003909191030E94892A23EC95
:104CD00035EF4CE151E40E94892A6093860370937A
:104CE0008703809388039093890380918403909134
:104CF00085039C012F5F3F4F3093850320938403EE
:104D0000853691050CF469C08BEE92E00E941E1866
:104D10006091000170910101072E000C880B990B26
:104D200097FF33C10E94FD1786EF92E00E941E1884
:104D300060919603709197038091980390919903E5
:104D400042E00E9422188BEF92E00E941E186091B0
:104D5000920370919303809194039091950342E0A4
:104D60000E94221880E093E00E941E1860918E033A
:104D700070918F03809190039091910342E00E9483
:104D8000221885E093E00E941E18609186037091BE
:104D90008703809188039091890342E00E94221842
:104DA00085E193E00E941E1860918A0370918B0345
:104DB00080918C0390918D0397FFEBC00E94FD17AB
:104DC000109285031092840380910001909101015B
:104DD0000196909301018093000110929B03109221
:104DE0009A03109183038091620590916305892B4A
:104DF00009F054C0113009F454C00E94BB0F8090D8
:104E00007F0390908003A0908103B0908203681983
:104E100079098A099B09683E734081059105F0F183
:104E20000E94BB0F60937F03709380038093810384
:104E3000909382030E946A129C0180919005609178
:104E40008D050E943528892F90E0880F991F409189
:104E50008E0550918F05840F951FFC0131832083AF
:104E6000809190058F5F809390050E948C0D8091BA
:104E700091059091920561E08537FEE09F0708F467
:104E80008CC080E10E94F70D69E170E080E090E065
:104E90000E94880F60E080E10E94F70D112309F461
:104EA00021CE0E94BB0F00917B0310917C032091C7
:104EB0007D0330917E03601B710B820B930B6D326F
:104EC00071408105910500F10E94BB0F60937B0347
:104ED00070937C0380937D0390937E0380917A038B
:104EE00065E00E9435289F5F90937A03933008F025
:104EF00074C081E08093790361E087E00E94F70D40
:104F000060E087E00E94F70D80917903882309F41F
:104F100067C061E088E00E94F70D61E089E0E0CDC4
:104F20008E3009F04BCEAF968EAD9FADAF9797FD0B
:104F30000396FC01F595E795F595E795AF96FFAFDC
:104F4000EEAFAF97AD968EAD9FADAD9797FD039643
:104F50009C013595279535952795AD963FAF2EAF9A
:104F6000AD97AB968EAD9FADAB9797FD0396FC01C9
:104F7000F595E795F595E795AB96FFAFEEAFAB9757
:104F80001DCE60E070E0CB0184CE4AE00E94B917EC
:104F9000CBCE4AE00E94B91713CF89342DE0920797
:104FA000B8F084379E40A1F089E00E94F70D61E0DF
:104FB00088E00E94F70D69E170E080E090E00E94D7
:104FC000880F60E089E00E94F70D60E088E064CF20
:104FD00089E00E94F70D61E0F9CF109279038CCF40
:104FE00060E088E00E94F70D60E098CFFC018181CD
:104FF0009281009711F00C94972B089580914E05A3
:1050000090914F05009739F0DC01ED91FC91028001
:10501000F381E02D099580915005909151050097FD
:1050200039F0DC01ED91FC910280F381E02D0995CE
:1050300080918E0590918F05009711F00E94972B1B
:1050400083E995E00E94F6278BE995E00E94F62718
:1050500083EA95E00E94F6278091AC059091AD051A
:10506000009711F00C94972B0895991B79E004C0D8
:10507000991F961708F0961B881F7A95C9F7809597
:105080000895AA1BBB1B51E107C0AA1FBB1FA6178F
:10509000B70710F0A61BB70B881F991F5A95A9F7E1
:1050A00080959095BC01CD01089597FB072E16F4CD
:1050B000009407D077FD09D00E94412807FC05D055
:1050C0003EF4909581959F4F0895709561957F4F1F
:1050D0000895A1E21A2EAA1BBB1BFD010DC0AA1F39
:1050E000BB1FEE1FFF1FA217B307E407F50720F051
:1050F000A21BB30BE40BF50B661F771F881F991FCC
:105100001A9469F760957095809590959B01AC0114
:10511000BD01CF010895052E97FB1EF400940E9457
:10512000A22857FD07D00E94692807FC03D04EF43F
:105130000C94A22850954095309521953F4F4F4FA4
:105140005F4F089590958095709561957F4F8F4F33
:105150009F4F0895A29FB001B39FC001A39F700D00
:10516000811D1124911DB29F700D811D1124911D6F
:105170000895EE0FFF1F0590F491E02D099450580B
:10518000BB27AA270E94D7280C944A2A0E943C2AAF
:1051900038F00E94432A20F039F49F3F19F426F496
:1051A0000C94392A0EF4E095E7FB0C94332AE92F8E
:1051B0000E945B2A58F3BA176207730784079507A2
:1051C00020F079F4A6F50C947D2A0EF4E0950B2ED0
:1051D000BA2FA02D0B01B90190010C01CA01A00149
:1051E0001124FF27591B99F0593F50F4503E68F1A4
:1051F0001A16F040A22F232F342F4427585FF3CFE5
:10520000469537952795A795F0405395C9F77EF4B5
:105210001F16BA0B620B730B840BBAF09150A1F0FE
:10522000FF0FBB1F661F771F881FC2F70EC0BA0F84
:10523000621F731F841F48F4879577956795B7950C
:10524000F7959E3F08F0B0CF9395880F08F0992707
:10525000EE0F9795879508950E940F2A08F481E034
:1052600008950E9445290C944A2A0E94432A58F026
:105270000E943C2A40F029F45F3F29F00C94332A25
:1052800051110C947E2A0C94392A0E945B2A68F3EF
:105290009923B1F3552391F3951B550BBB27AA27EF
:1052A00062177307840738F09F5F5F4F220F331F29
:1052B000441FAA1FA9F335D00E2E3AF0E0E832D0F1
:1052C00091505040E695001CCAF72BD0FE2F29D0F4
:1052D000660F771F881FBB1F261737074807AB07C6
:1052E000B0E809F0BB0B802DBF01FF2793585F4F3B
:1052F0003AF09E3F510578F00C94332A0C947E2AA4
:105300005F3FE4F3983ED4F3869577956795B7951C
:10531000F7959F5FC9F7880F911D9695879597F927
:105320000895E1E0660F771F881FBB1F62177307A0
:105330008407BA0720F0621B730B840BBA0BEE1FB5
:1053400088F7E09508950E94632A88F09F5798F0A7
:10535000B92F9927B751B0F0E1F0660F771F881F7A
:10536000991F1AF0BA95C9F714C0B13091F00E9494
:105370007D2AB1E008950C947D2A672F782F882725
:10538000B85F39F0B93FCCF3869577956795B395BB
:10539000D9F73EF490958095709561957F4F8F4F2A
:1053A0009F4F0895E89409C097FB3EF4909580952F
:1053B000709561957F4F8F4F9F4F9923A9F0F92FDB
:1053C00096E9BB279395F695879577956795B79559
:1053D000F111F8CFFAF4BB0F11F460FF1BC06F5F3F
:1053E0007F4F8F4F9F4F16C0882311F096E911C051
:1053F000772321F09EE8872F762F05C0662371F072
:1054000096E8862F70E060E02AF09A95660F771F85
:10541000881FDAF7880F9695879597F90895990F61
:105420000008550FAA0BE0E8FEEF16161706E8076E
:10543000F907C0F012161306E407F50798F0621B8F
:10544000730B840B950B39F40A2661F0232B242B64
:10545000252B21F408950A2609F4A140A6958FEF83
:10546000811D811D089597F99F6780E870E060E0D5
:1054700008959FEF80EC089500240A9416161706ED
:1054800018060906089500240A9412161306140635
:1054900005060895092E0394000C11F4882352F098
:1054A000BB0F40F4BF2B11F460FF04C06F5F7F4F50
:1054B0008F4F9F4F089557FD9058440F551F59F037
:1054C0005F3F71F04795880F97FB991F61F09F3FF1
:1054D00079F087950895121613061406551FF2CF1A
:1054E0004695F1DF08C0161617061806991FF1CF6A
:1054F00086957105610508940895E894BB27662791
:105500007727CB0197F908950E940F2A08F48FEFAF
:1055100008950E949C2A0C944A2A0E943C2A38F042
:105520000E94432A20F0952311F00C94332A0C9406
:10553000392A11240C947E2A0E945B2A70F3959FCD
:10554000C1F3950F50E0551F629FF001729FBB277A
:10555000F00DB11D639FAA27F00DB11DAA1F649F16
:105560006627B00DA11D661F829F2227B00DA11DC9
:10557000621F739FB00DA11D621F839FA00D611D4F
:10558000221F749F3327A00D611D231F849F600D70
:10559000211D822F762F6A2F11249F5750409AF099
:1055A000F1F088234AF0EE0FFF1FBB1F661F771F25
:1055B000881F91505040A9F79E3F510580F00C94F0
:1055C000332A0C947E2A5F3FE4F3983ED4F3869509
:1055D00077956795B795F795E7959F5FC1F7FE2B90
:1055E000880F911D9695879597F908950E940F2A27
:1055F000880B990B08950F931F93CF93DF938230FD
:10560000910510F482E090E0E091B505F091B605C7
:1056100030E020E0B0E0A0E0309799F421153105AA
:1056200009F44AC0281B390B24303105D8F58A818A
:105630009B816115710589F1FB0193838283FE01D2
:1056400011C0408151810281138148175907E0F050
:105650004817590799F4109761F012960C93129716
:1056600013961C933296CF01DF91CF911F910F912A
:1056700008950093B5051093B605F4CF21153105B3
:1056800051F04217530738F0A901DB019A01BD011F
:10569000DF01F801C1CFEF01F9CF9093B6058093F8
:1056A000B505CDCFFE01E20FF31F819391932250F8
:1056B000310939832883D7CF2091B3053091B405C0
:1056C000232B41F420910401309105013093B4055E
:1056D0002093B3052091020130910301211531057A
:1056E00041F42DB73EB74091060150910701241BAC
:1056F000350BE091B305F091B405E217F307A0F480
:105700002E1B3F0B2817390778F0AC014E5F5F4F17
:105710002417350748F04E0F5F1F5093B405409390
:10572000B305819391939FCFF0E0E0E09CCFCF93BE
:10573000DF930097E9F0FC01329713821282A09167
:10574000B505B091B605ED0130E020E01097A1F469
:1057500020813181820F931F2091B3053091B405D0
:105760002817390709F061C0F093B405E093B30539
:10577000DF91CF910895EA01CE17DF07E8F54A815E
:105780005B819E0141155105B1F7E901FB83EA8375
:1057900049915991C40FD51FEC17FD0761F4808121
:1057A00091810296840F951FE901998388838281F4
:1057B00093819B838A83F0E0E0E012968D919C9127
:1057C00013970097B9F52D913C911197CD01029651
:1057D000820F931F2091B3053091B4052817390724
:1057E00039F6309751F51092B6051092B505B09381
:1057F000B405A093B305BCCFD383C283408151814C
:10580000840F951FC817D90761F44E5F5F4F8881D9
:105810009981480F591F518340838A819B819383CB
:1058200082832115310509F0B0CFF093B605E093DE
:10583000B5059ECFFD01DC01C0CF13821282D7CF08
:10584000FB01DC014150504048F001900D920020D6
:10585000C9F701C01D9241505040E0F708951CE087
:10586000C2E6DCE004C0FE010E94B9282196C336DE
:08587000D107C9F7F894FFCF3E
:1058780001000000B7058000000000006910C90F92
:10588800F60FB6102710051019100000000060115F
:105898003311BC111011D610201111110000000095
:1058A800DD10A817DE1041198C1900000000DD106A
:1058B800AA17DE10FE18DB196E616E00696E6600AD
:1058C8006F76660044505333313000436F6E66691B
:1058D80067757265642053504920696E74657266F5
:1058E800616365200D0A00436F6E666967757265AE
:1058F8006420416C61726D73200D0A004661696C09
:10590800656420746F2066696E64204450530044B7
:1059180050532050726573737572652053656E73AA
:105928006F72204F4B210044657669636520426F92
:105938006F746564200D0A00496E697469616C6949
:105948007A696E6720424D41343536200D0A00458C
:1059580052524F52203A20626D613435365F696E7B
:105968006974206661696C6564200D0A00455252AD
:105978004F52203A20626D61345F7365745F636FC4
:105988006D6D616E645F72656769737465722066B8
:1059980061696C6564200D0A004552524F52203AE5
:1059A80020626D613435365F77726974655F636F45
:1059B8006E6669675F66696C65206661696C6564B7
:1059C800200D0A004552524F52203A20626D613430
:1059D8005F7365745F616363656C5F636F6E66694F
:1059E80067206661696C6564200D0A004552524F54
:1059F80052203A20626D61345F7365745F6163633E
:105A0800656C5F656E61626C65206661696C656472
:105A1800200D0A00436F6E666967757265642042DF
:105A28004D41343536207375636365737366756CE1
:105A38006C79200D0A005472616E736974696F6E17
:105A4800696E6720746F204E6F726D616C204F70A5
:105A580065726174696F6E200D0A000D0A20496E27
:105A68006465783A200020583A200020593A2000EE
:105A7800205A3A200020416363656C65726174693D
:0E5A88006F6E3A20002054656D703A200000C9
:00000001FF
